{
  "contractName": "LeagueFactory",
  "abi": [
    {
      "constant": true,
      "inputs": [
        {
          "name": "",
          "type": "uint256"
        }
      ],
      "name": "deployedLeagues",
      "outputs": [
        {
          "name": "",
          "type": "address"
        }
      ],
      "payable": false,
      "stateMutability": "view",
      "type": "function"
    },
    {
      "inputs": [],
      "payable": false,
      "stateMutability": "nonpayable",
      "type": "constructor"
    },
    {
      "constant": false,
      "inputs": [],
      "name": "deployLeague",
      "outputs": [],
      "payable": false,
      "stateMutability": "nonpayable",
      "type": "function"
    },
    {
      "constant": true,
      "inputs": [],
      "name": "GetAllLeagues",
      "outputs": [
        {
          "name": "",
          "type": "address[]"
        }
      ],
      "payable": false,
      "stateMutability": "view",
      "type": "function"
    },
    {
      "constant": false,
      "inputs": [],
      "name": "deleteAllLeagues",
      "outputs": [],
      "payable": false,
      "stateMutability": "nonpayable",
      "type": "function"
    }
  ],
  "bytecode": "0x608060405234801561001057600080fd5b5061125b806100206000396000f3fe608060405234801561001057600080fd5b506004361061004c5760003560e01c806324f688991461005157806339f82761146100b05780633eb1f5dd146100ba57806358cc52cf14610128575b600080fd5b610059610132565b6040518080602001828103825283818151815260200191508051906020019060200280838360005b8381101561009c578082015181840152602081019050610081565b505050509050019250505060405180910390f35b6100b86101c0565b005b6100e6600480360360208110156100d057600080fd5b810190808035906020019092919050505061028d565b604051808273ffffffffffffffffffffffffffffffffffffffff1673ffffffffffffffffffffffffffffffffffffffff16815260200191505060405180910390f35b6101306102c9565b005b606060008054806020026020016040519081016040528092919081815260200182805480156101b657602002820191906000526020600020905b8160009054906101000a900473ffffffffffffffffffffffffffffffffffffffff1673ffffffffffffffffffffffffffffffffffffffff168152602001906001019080831161016c575b5050505050905090565b6000336040516101cf906102e6565b808273ffffffffffffffffffffffffffffffffffffffff1673ffffffffffffffffffffffffffffffffffffffff168152602001915050604051809103906000f080158015610221573d6000803e3d6000fd5b50905060008190806001815401808255809150509060018203906000526020600020016000909192909190916101000a81548173ffffffffffffffffffffffffffffffffffffffff021916908373ffffffffffffffffffffffffffffffffffffffff1602179055505050565b6000818154811061029a57fe5b906000526020600020016000915054906101000a900473ffffffffffffffffffffffffffffffffffffffff1681565b6000806102d691906102f3565b60008080549050146102e457fe5b565b610ef68061033a83390190565b50805460008255906000526020600020908101906103119190610314565b50565b61033691905b8082111561033257600081600090555060010161031a565b5090565b9056fe608060405234801561001057600080fd5b50604051602080610ef68339810180604052602081101561003057600080fd5b810190808051906020019092919050505080600160006101000a81548173ffffffffffffffffffffffffffffffffffffffff021916908373ffffffffffffffffffffffffffffffffffffffff16021790555050610e64806100926000396000f3fe6080604052600436106100555760003560e01c80631fe127cd1461005a578063481c6a75146100c6578063687a5e7b1461011d5780636ee44031146101e25780639f6c0ce31461025d578063eb1fa9fa146102c9575b600080fd5b34801561006657600080fd5b5061006f6102f4565b6040518080602001828103825283818151815260200191508051906020019060200280838360005b838110156100b2578082015181840152602081019050610097565b505050509050019250505060405180910390f35b3480156100d257600080fd5b506100db610382565b604051808273ffffffffffffffffffffffffffffffffffffffff1673ffffffffffffffffffffffffffffffffffffffff16815260200191505060405180910390f35b6101e06004803603604081101561013357600080fd5b81019080803590602001909291908035906020019064010000000081111561015a57600080fd5b82018360208201111561016c57600080fd5b8035906020019184600183028401116401000000008311171561018e57600080fd5b91908080601f016020809104026020016040519081016040528093929190818152602001838380828437600081840152601f19601f8201169050808301925050505050505091929192905050506103a8565b005b3480156101ee57600080fd5b5061021b6004803603602081101561020557600080fd5b810190808035906020019092919050505061050d565b604051808273ffffffffffffffffffffffffffffffffffffffff1673ffffffffffffffffffffffffffffffffffffffff16815260200191505060405180910390f35b34801561026957600080fd5b50610272610549565b6040518080602001828103825283818151815260200191508051906020019060200280838360005b838110156102b557808201518184015260208101905061029a565b505050509050019250505060405180910390f35b3480156102d557600080fd5b506102de6105d7565b6040518082815260200191505060405180910390f35b6060600080548060200260200160405190810160405280929190818152602001828054801561037857602002820191906000526020600020905b8160009054906101000a900473ffffffffffffffffffffffffffffffffffffffff1673ffffffffffffffffffffffffffffffffffffffff168152602001906001019080831161032e575b5050505050905090565b600160009054906101000a900473ffffffffffffffffffffffffffffffffffffffff1681565b60003073ffffffffffffffffffffffffffffffffffffffff1631838334336040516103d2906105e3565b80858152602001806020018481526020018373ffffffffffffffffffffffffffffffffffffffff1673ffffffffffffffffffffffffffffffffffffffff168152602001828103825285818151815260200191508051906020019080838360005b8381101561044d578082015181840152602081019050610432565b50505050905090810190601f16801561047a5780820380516001836020036101000a031916815260200191505b50955050505050506040518091039082f08015801561049d573d6000803e3d6000fd5b509050905060008190806001815401808255809150509060018203906000526020600020016000909192909190916101000a81548173ffffffffffffffffffffffffffffffffffffffff021916908373ffffffffffffffffffffffffffffffffffffffff16021790555050505050565b6000818154811061051a57fe5b906000526020600020016000915054906101000a900473ffffffffffffffffffffffffffffffffffffffff1681565b606060008054806020026020016040519081016040528092919081815260200182805480156105cd57602002820191906000526020600020905b8160009054906101000a900473ffffffffffffffffffffffffffffffffffffffff1673ffffffffffffffffffffffffffffffffffffffff1681526020019060010190808311610583575b5050505050905090565b60008080549050905090565b610848806105f18339019056fe60806040526040516108483803806108488339810180604052608081101561002657600080fd5b8101908080519060200190929190805164010000000081111561004857600080fd5b8281019050602081018481111561005e57600080fd5b815185600182028301116401000000008211171561007b57600080fd5b50509291906020018051906020019092919080519060200190929190505050806000806101000a81548173ffffffffffffffffffffffffffffffffffffffff021916908373ffffffffffffffffffffffffffffffffffffffff160217905550836002819055508160038190555082600490805190602001906100fe929190610123565b506000600760006101000a81548160ff021916908315150217905550505050506101c8565b828054600181600116156101000203166002900490600052602060002090601f016020900481019282601f1061016457805160ff1916838001178555610192565b82800160010185558215610192579182015b82811115610191578251825591602001919060010190610176565b5b50905061019f91906101a3565b5090565b6101c591905b808211156101c15760008160009055506001016101a9565b5090565b90565b610671806101d76000396000f3fe608060405234801561001057600080fd5b50600436106100935760003560e01c8063522e117711610066578063522e1177146101c757806365213840146101e9578063a2fb117514610207578063e80380a414610275578063f71d96cb1461027f57610093565b806306fdde0314610098578063409ca41f1461011b578063481c6a751461015f5780634c2412a2146101a9575b600080fd5b6100a06102ed565b6040518080602001828103825283818151815260200191508051906020019080838360005b838110156100e05780820151818401526020810190506100c5565b50505050905090810190601f16801561010d5780820380516001836020036101000a031916815260200191505b509250505060405180910390f35b61015d6004803603602081101561013157600080fd5b81019080803573ffffffffffffffffffffffffffffffffffffffff16906020019092919050505061038b565b005b610167610458565b604051808273ffffffffffffffffffffffffffffffffffffffff1673ffffffffffffffffffffffffffffffffffffffff16815260200191505060405180910390f35b6101b161047d565b6040518082815260200191505060405180910390f35b6101cf610483565b604051808215151515815260200191505060405180910390f35b6101f1610496565b6040518082815260200191505060405180910390f35b6102336004803603602081101561021d57600080fd5b810190808035906020019092919050505061049c565b604051808273ffffffffffffffffffffffffffffffffffffffff1673ffffffffffffffffffffffffffffffffffffffff16815260200191505060405180910390f35b61027d6104d8565b005b6102ab6004803603602081101561029557600080fd5b8101908080359060200190929190505050610609565b604051808273ffffffffffffffffffffffffffffffffffffffff1673ffffffffffffffffffffffffffffffffffffffff16815260200191505060405180910390f35b60048054600181600116156101000203166002900480601f0160208091040260200160405190810160405280929190818152602001828054600181600116156101000203166002900480156103835780601f1061035857610100808354040283529160200191610383565b820191906000526020600020905b81548152906001019060200180831161036657829003601f168201915b505050505081565b6000809054906101000a900473ffffffffffffffffffffffffffffffffffffffff1673ffffffffffffffffffffffffffffffffffffffff163373ffffffffffffffffffffffffffffffffffffffff16146103e457600080fd5b600660008273ffffffffffffffffffffffffffffffffffffffff1673ffffffffffffffffffffffffffffffffffffffff16815260200190815260200160002060009054906101000a900460ff1661043a57600080fd5b6001600760006101000a81548160ff02191690831515021790555050565b6000809054906101000a900473ffffffffffffffffffffffffffffffffffffffff1681565b60025481565b600760009054906101000a900460ff1681565b60035481565b600581815481106104a957fe5b906000526020600020016000915054906101000a900473ffffffffffffffffffffffffffffffffffffffff1681565b600660003373ffffffffffffffffffffffffffffffffffffffff1673ffffffffffffffffffffffffffffffffffffffff16815260200190815260200160002060009054906101000a900460ff161561052f57600080fd5b600760009054906101000a900460ff161561054957600080fd5b6001600660003373ffffffffffffffffffffffffffffffffffffffff1673ffffffffffffffffffffffffffffffffffffffff16815260200190815260200160002060006101000a81548160ff02191690831515021790555060013390806001815401808255809150509060018203906000526020600020016000909192909190916101000a81548173ffffffffffffffffffffffffffffffffffffffff021916908373ffffffffffffffffffffffffffffffffffffffff16021790555050565b6001818154811061061657fe5b906000526020600020016000915054906101000a900473ffffffffffffffffffffffffffffffffffffffff168156fea165627a7a723058201698fee497267b14eb6611289a787f1f364b0f655112b006ba35d79d97a29e660029a165627a7a72305820b8200d108fdacd1ed525c7717ff01c2ee0d2de4e1c6748b2212d8b781ed6c3240029a165627a7a723058205f9f9aee7e2b12cc103445eaeae0fc5b6e55d215428cbaa9bb9bf0bc4483a8930029",
  "source": "pragma solidity ^0.5.0;\r\n\r\nimport \"./leagues.sol\";\r\nimport \"./Competition.sol\";\r\n\r\ncontract LeagueFactory {\r\n   League[] public  deployedLeagues;\r\n//   Competitions [] public deployedCompetitions;\r\n\r\n\r\n  function deployLeague() public{\r\n        League newLeague = new League(msg.sender);\r\n        deployedLeagues.push(newLeague);\r\n       }\r\n    function GetAllLeagues() public view returns (League[] memory){\r\n        return deployedLeagues;\r\n    }\r\n    function deleteAllLeagues() public {\r\n         delete deployedLeagues;\r\n         assert(deployedLeagues.length == 0);\r\n    }\r\n       \r\n  constructor() public {\r\n  }\r\n}",
  "sourcePath": "C:/Users/Solut/Google Drive/work2/projects/admin-fcc v1.2/contracts/factory.sol",
  "compiler": {
    "name": "solc",
    "version": "0.5.8+commit.23d335f2.Emscripten.clang"
  },
  "schemaVersion": "3.0.11",
  "updatedAt": "2019-06-20T10:00:35.174Z",
  "devdoc": {
    "methods": {}
  },
  "userdoc": {
    "methods": {}
  }
}